{
  "contractName": "BridgifyEUR",
  "abi": [
    {
      "constant": true,
      "inputs": [],
      "name": "name",
      "outputs": [
        {
          "name": "",
          "type": "string"
        }
      ],
      "payable": false,
      "stateMutability": "view",
      "type": "function"
    },
    {
      "constant": true,
      "inputs": [],
      "name": "totalSupply",
      "outputs": [
        {
          "name": "",
          "type": "int256"
        }
      ],
      "payable": false,
      "stateMutability": "view",
      "type": "function"
    },
    {
      "constant": false,
      "inputs": [
        {
          "name": "from",
          "type": "address"
        },
        {
          "name": "to",
          "type": "address"
        },
        {
          "name": "value",
          "type": "int256"
        }
      ],
      "name": "transferFrom",
      "outputs": [
        {
          "name": "",
          "type": "bool"
        }
      ],
      "payable": false,
      "stateMutability": "nonpayable",
      "type": "function"
    },
    {
      "constant": true,
      "inputs": [],
      "name": "decimals",
      "outputs": [
        {
          "name": "",
          "type": "int8"
        }
      ],
      "payable": false,
      "stateMutability": "view",
      "type": "function"
    },
    {
      "constant": false,
      "inputs": [
        {
          "name": "spender",
          "type": "address"
        },
        {
          "name": "subtractedValue",
          "type": "int256"
        }
      ],
      "name": "decreaseAllowance",
      "outputs": [
        {
          "name": "",
          "type": "bool"
        }
      ],
      "payable": false,
      "stateMutability": "nonpayable",
      "type": "function"
    },
    {
      "constant": true,
      "inputs": [
        {
          "name": "owner",
          "type": "address"
        }
      ],
      "name": "balanceOf",
      "outputs": [
        {
          "name": "",
          "type": "int256"
        }
      ],
      "payable": false,
      "stateMutability": "view",
      "type": "function"
    },
    {
      "constant": true,
      "inputs": [],
      "name": "symbol",
      "outputs": [
        {
          "name": "",
          "type": "string"
        }
      ],
      "payable": false,
      "stateMutability": "view",
      "type": "function"
    },
    {
      "constant": false,
      "inputs": [
        {
          "name": "to",
          "type": "address"
        },
        {
          "name": "value",
          "type": "int256"
        }
      ],
      "name": "transfer",
      "outputs": [
        {
          "name": "",
          "type": "bool"
        }
      ],
      "payable": false,
      "stateMutability": "nonpayable",
      "type": "function"
    },
    {
      "constant": false,
      "inputs": [
        {
          "name": "spender",
          "type": "address"
        },
        {
          "name": "addedValue",
          "type": "int256"
        }
      ],
      "name": "increaseAllowance",
      "outputs": [
        {
          "name": "",
          "type": "bool"
        }
      ],
      "payable": false,
      "stateMutability": "nonpayable",
      "type": "function"
    },
    {
      "constant": false,
      "inputs": [
        {
          "name": "spender",
          "type": "address"
        },
        {
          "name": "value",
          "type": "int256"
        }
      ],
      "name": "approve",
      "outputs": [
        {
          "name": "",
          "type": "bool"
        }
      ],
      "payable": false,
      "stateMutability": "nonpayable",
      "type": "function"
    },
    {
      "constant": true,
      "inputs": [
        {
          "name": "owner",
          "type": "address"
        },
        {
          "name": "spender",
          "type": "address"
        }
      ],
      "name": "allowance",
      "outputs": [
        {
          "name": "",
          "type": "int256"
        }
      ],
      "payable": false,
      "stateMutability": "view",
      "type": "function"
    },
    {
      "inputs": [
        {
          "name": "_fiataggregator",
          "type": "address"
        }
      ],
      "payable": false,
      "stateMutability": "nonpayable",
      "type": "constructor"
    },
    {
      "anonymous": false,
      "inputs": [
        {
          "indexed": false,
          "name": "finalExchangeRate",
          "type": "int256"
        }
      ],
      "name": "ExchangeRate",
      "type": "event"
    },
    {
      "anonymous": false,
      "inputs": [
        {
          "indexed": true,
          "name": "from",
          "type": "address"
        },
        {
          "indexed": true,
          "name": "to",
          "type": "address"
        },
        {
          "indexed": false,
          "name": "value",
          "type": "int256"
        }
      ],
      "name": "Transfer",
      "type": "event"
    },
    {
      "anonymous": false,
      "inputs": [
        {
          "indexed": true,
          "name": "owner",
          "type": "address"
        },
        {
          "indexed": true,
          "name": "spender",
          "type": "address"
        },
        {
          "indexed": false,
          "name": "value",
          "type": "int256"
        }
      ],
      "name": "Approval",
      "type": "event"
    },
    {
      "constant": false,
      "inputs": [
        {
          "name": "token",
          "type": "address"
        },
        {
          "name": "_amount",
          "type": "int256"
        },
        {
          "name": "_erc20aggregator",
          "type": "address"
        }
      ],
      "name": "depositFiat",
      "outputs": [],
      "payable": false,
      "stateMutability": "nonpayable",
      "type": "function"
    },
    {
      "constant": false,
      "inputs": [
        {
          "name": "token",
          "type": "address"
        },
        {
          "name": "_amount",
          "type": "int256"
        },
        {
          "name": "_erc20aggregator",
          "type": "address"
        }
      ],
      "name": "redeem",
      "outputs": [],
      "payable": false,
      "stateMutability": "nonpayable",
      "type": "function"
    },
    {
      "constant": false,
      "inputs": [
        {
          "name": "_erc20aggregator",
          "type": "address"
        },
        {
          "name": "_amount",
          "type": "int256"
        }
      ],
      "name": "getExchangeRate",
      "outputs": [],
      "payable": false,
      "stateMutability": "nonpayable",
      "type": "function"
    }
  ],
  "bytecode": "0x60806040523480156200001157600080fd5b5060405160208062002175833981018060405260208110156200003357600080fd5b81019080805190602001909291905050506040805190810160405280600a81526020017f546573746e6574455552000000000000000000000000000000000000000000008152506040805190810160405280600381526020017f455552000000000000000000000000000000000000000000000000000000000081525060128260039080519060200190620000ca9291906200014d565b508160049080519060200190620000e39291906200014d565b5080600560006101000a81548160ff021916908360000b60ff16021790555050505080600660006101000a81548173ffffffffffffffffffffffffffffffffffffffff021916908373ffffffffffffffffffffffffffffffffffffffff16021790555050620001fc565b828054600181600116156101000203166002900490600052602060002090601f016020900481019282601f106200019057805160ff1916838001178555620001c1565b82800160010185558215620001c1579182015b82811115620001c0578251825591602001919060010190620001a3565b5b509050620001d09190620001d4565b5090565b620001f991905b80821115620001f5576000816000905550600101620001db565b5090565b90565b611f69806200020c6000396000f3fe6080604052600436106100d0576000357c0100000000000000000000000000000000000000000000000000000000900463ffffffff16806306fdde03146100d557806318160ddd14610165578063192193b914610190578063313ce567146102235780635833cdf9146102545780636f16460f146102cf57806370a082311461034257806395d89b41146103a7578063a5f7c14814610437578063b6d92feb146104aa578063caa9dbdf14610505578063d4e12f2e14610578578063dd62ed3e146105eb578063dedac53c14610670575b600080fd5b3480156100e157600080fd5b506100ea6106eb565b6040518080602001828103825283818151815260200191508051906020019080838360005b8381101561012a57808201518184015260208101905061010f565b50505050905090810190601f1680156101575780820380516001836020036101000a031916815260200191505b509250505060405180910390f35b34801561017157600080fd5b5061017a61078d565b6040518082815260200191505060405180910390f35b34801561019c57600080fd5b50610209600480360360608110156101b357600080fd5b81019080803573ffffffffffffffffffffffffffffffffffffffff169060200190929190803573ffffffffffffffffffffffffffffffffffffffff16906020019092919080359060200190929190505050610797565b604051808215151515815260200191505060405180910390f35b34801561022f57600080fd5b50610238610848565b604051808260000b60000b815260200191505060405180910390f35b34801561026057600080fd5b506102cd6004803603606081101561027757600080fd5b81019080803573ffffffffffffffffffffffffffffffffffffffff16906020019092919080359060200190929190803573ffffffffffffffffffffffffffffffffffffffff16906020019092919050505061085f565b005b3480156102db57600080fd5b50610328600480360360408110156102f257600080fd5b81019080803573ffffffffffffffffffffffffffffffffffffffff16906020019092919080359060200190929190505050610dbd565b604051808215151515815260200191505060405180910390f35b34801561034e57600080fd5b506103916004803603602081101561036557600080fd5b81019080803573ffffffffffffffffffffffffffffffffffffffff169060200190929190505050610e62565b6040518082815260200191505060405180910390f35b3480156103b357600080fd5b506103bc610eaa565b6040518080602001828103825283818151815260200191508051906020019080838360005b838110156103fc5780820151818401526020810190506103e1565b50505050905090810190601f1680156104295780820380516001836020036101000a031916815260200191505b509250505060405180910390f35b34801561044357600080fd5b506104906004803603604081101561045a57600080fd5b81019080803573ffffffffffffffffffffffffffffffffffffffff16906020019092919080359060200190929190505050610f4c565b604051808215151515815260200191505060405180910390f35b3480156104b657600080fd5b50610503600480360360408110156104cd57600080fd5b81019080803573ffffffffffffffffffffffffffffffffffffffff16906020019092919080359060200190929190505050610f63565b005b34801561051157600080fd5b5061055e6004803603604081101561052857600080fd5b81019080803573ffffffffffffffffffffffffffffffffffffffff16906020019092919080359060200190929190505050611153565b604051808215151515815260200191505060405180910390f35b34801561058457600080fd5b506105d16004803603604081101561059b57600080fd5b81019080803573ffffffffffffffffffffffffffffffffffffffff169060200190929190803590602001909291905050506111f8565b604051808215151515815260200191505060405180910390f35b3480156105f757600080fd5b5061065a6004803603604081101561060e57600080fd5b81019080803573ffffffffffffffffffffffffffffffffffffffff169060200190929190803573ffffffffffffffffffffffffffffffffffffffff16906020019092919050505061120f565b6040518082815260200191505060405180910390f35b34801561067c57600080fd5b506106e96004803603606081101561069357600080fd5b81019080803573ffffffffffffffffffffffffffffffffffffffff16906020019092919080359060200190929190803573ffffffffffffffffffffffffffffffffffffffff169060200190929190505050611296565b005b606060038054600181600116156101000203166002900480601f0160208091040260200160405190810160405280929190818152602001828054600181600116156101000203166002900480156107835780601f1061075857610100808354040283529160200191610783565b820191906000526020600020905b81548152906001019060200180831161076657829003601f168201915b5050505050905090565b6000600254905090565b60006107a48484846115ab565b61083d843361083885600160008a73ffffffffffffffffffffffffffffffffffffffff1673ffffffffffffffffffffffffffffffffffffffff16815260200190815260200160002060003373ffffffffffffffffffffffffffffffffffffffff1673ffffffffffffffffffffffffffffffffffffffff1681526020019081526020016000205461177790919063ffffffff16565b6117c1565b600190509392505050565b6000600560009054906101000a900460000b905090565b818373ffffffffffffffffffffffffffffffffffffffff166370a08231306040518263ffffffff167c0100000000000000000000000000000000000000000000000000000000028152600401808273ffffffffffffffffffffffffffffffffffffffff1673ffffffffffffffffffffffffffffffffffffffff16815260200191505060206040518083038186803b1580156108f957600080fd5b505afa15801561090d573d6000803e3d6000fd5b505050506040513d602081101561092357600080fd5b81019080805190602001909291905050501315156109cf576040517f08c379a00000000000000000000000000000000000000000000000000000000081526004018080602001828103825260338152602001807f54686520636f6e74726163742073686f756c64206861766520656e6f7567682081526020017f62616c616e636520746f207472616e736665720000000000000000000000000081525060400191505060405180910390fd5b813073ffffffffffffffffffffffffffffffffffffffff166370a08231336040518263ffffffff167c0100000000000000000000000000000000000000000000000000000000028152600401808273ffffffffffffffffffffffffffffffffffffffff1673ffffffffffffffffffffffffffffffffffffffff16815260200191505060206040518083038186803b158015610a6957600080fd5b505afa158015610a7d573d6000803e3d6000fd5b505050506040513d6020811015610a9357600080fd5b810190808051906020019092919050505012151515610b1a576040517f08c379a00000000000000000000000000000000000000000000000000000000081526004018080602001828103825260128152602001807f4c6f77206f6e204555522042616c616e6365000000000000000000000000000081525060200191505060405180910390fd5b610b2381611924565b6000610bf683600660009054906101000a900473ffffffffffffffffffffffffffffffffffffffff1673ffffffffffffffffffffffffffffffffffffffff166350d25bcd6040518163ffffffff167c010000000000000000000000000000000000000000000000000000000002815260040160206040518083038186803b158015610bad57600080fd5b505afa158015610bc1573d6000803e3d6000fd5b505050506040513d6020811015610bd757600080fd5b810190808051906020019092919050505061196890919063ffffffff16565b90506000610ccb600560019054906101000a900473ffffffffffffffffffffffffffffffffffffffff1673ffffffffffffffffffffffffffffffffffffffff166350d25bcd6040518163ffffffff167c010000000000000000000000000000000000000000000000000000000002815260040160206040518083038186803b158015610c8157600080fd5b505afa158015610c95573d6000803e3d6000fd5b505050506040513d6020811015610cab57600080fd5b810190808051906020019092919050505083611a3590919063ffffffff16565b9050610cd73385611a7f565b8473ffffffffffffffffffffffffffffffffffffffff1663a5f7c14833836040518363ffffffff167c0100000000000000000000000000000000000000000000000000000000028152600401808373ffffffffffffffffffffffffffffffffffffffff1673ffffffffffffffffffffffffffffffffffffffff16815260200182815260200192505050602060405180830381600087803b158015610d7a57600080fd5b505af1158015610d8e573d6000803e3d6000fd5b505050506040513d6020811015610da457600080fd5b8101908080519060200190929190505050505050505050565b6000610e583384610e5385600160003373ffffffffffffffffffffffffffffffffffffffff1673ffffffffffffffffffffffffffffffffffffffff16815260200190815260200160002060008973ffffffffffffffffffffffffffffffffffffffff1673ffffffffffffffffffffffffffffffffffffffff1681526020019081526020016000205461177790919063ffffffff16565b6117c1565b6001905092915050565b60008060008373ffffffffffffffffffffffffffffffffffffffff1673ffffffffffffffffffffffffffffffffffffffff168152602001908152602001600020549050919050565b606060048054600181600116156101000203166002900480601f016020809104026020016040519081016040528092919081815260200182805460018160011615610100020316600290048015610f425780601f10610f1757610100808354040283529160200191610f42565b820191906000526020600020905b815481529060010190602001808311610f2557829003601f168201915b5050505050905090565b6000610f593384846115ab565b6001905092915050565b610f6c82611924565b600061103f82600560019054906101000a900473ffffffffffffffffffffffffffffffffffffffff1673ffffffffffffffffffffffffffffffffffffffff166350d25bcd6040518163ffffffff167c010000000000000000000000000000000000000000000000000000000002815260040160206040518083038186803b158015610ff657600080fd5b505afa15801561100a573d6000803e3d6000fd5b505050506040513d602081101561102057600080fd5b810190808051906020019092919050505061196890919063ffffffff16565b90506000611114600660009054906101000a900473ffffffffffffffffffffffffffffffffffffffff1673ffffffffffffffffffffffffffffffffffffffff166350d25bcd6040518163ffffffff167c010000000000000000000000000000000000000000000000000000000002815260040160206040518083038186803b1580156110ca57600080fd5b505afa1580156110de573d6000803e3d6000fd5b505050506040513d60208110156110f457600080fd5b810190808051906020019092919050505083611a3590919063ffffffff16565b90507fb40612d583ec8a97c95a5d5d43a0c0ccfe2a54a5be16d494cd49265efc40931a816040518082815260200191505060405180910390a150505050565b60006111ee33846111e985600160003373ffffffffffffffffffffffffffffffffffffffff1673ffffffffffffffffffffffffffffffffffffffff16815260200190815260200160002060008973ffffffffffffffffffffffffffffffffffffffff1673ffffffffffffffffffffffffffffffffffffffff16815260200190815260200160002054611bd390919063ffffffff16565b6117c1565b6001905092915050565b60006112053384846117c1565b6001905092915050565b6000600160008473ffffffffffffffffffffffffffffffffffffffff1673ffffffffffffffffffffffffffffffffffffffff16815260200190815260200160002060008373ffffffffffffffffffffffffffffffffffffffff1673ffffffffffffffffffffffffffffffffffffffff16815260200190815260200160002054905092915050565b61129f81611924565b60006112da6112cb60646112bd60038761196890919063ffffffff16565b611a3590919063ffffffff16565b84611bd390919063ffffffff16565b90508373ffffffffffffffffffffffffffffffffffffffff1663192193b93330846040518463ffffffff167c0100000000000000000000000000000000000000000000000000000000028152600401808473ffffffffffffffffffffffffffffffffffffffff1673ffffffffffffffffffffffffffffffffffffffff1681526020018373ffffffffffffffffffffffffffffffffffffffff1673ffffffffffffffffffffffffffffffffffffffff1681526020018281526020019350505050602060405180830381600087803b1580156113b357600080fd5b505af11580156113c7573d6000803e3d6000fd5b505050506040513d60208110156113dd57600080fd5b81019080805190602001909291905050505060006114c284600560019054906101000a900473ffffffffffffffffffffffffffffffffffffffff1673ffffffffffffffffffffffffffffffffffffffff166350d25bcd6040518163ffffffff167c010000000000000000000000000000000000000000000000000000000002815260040160206040518083038186803b15801561147957600080fd5b505afa15801561148d573d6000803e3d6000fd5b505050506040513d60208110156114a357600080fd5b810190808051906020019092919050505061196890919063ffffffff16565b90506000611597600660009054906101000a900473ffffffffffffffffffffffffffffffffffffffff1673ffffffffffffffffffffffffffffffffffffffff166350d25bcd6040518163ffffffff167c010000000000000000000000000000000000000000000000000000000002815260040160206040518083038186803b15801561154d57600080fd5b505afa158015611561573d6000803e3d6000fd5b505050506040513d602081101561157757600080fd5b810190808051906020019092919050505083611a3590919063ffffffff16565b90506115a33382611c5d565b505050505050565b600073ffffffffffffffffffffffffffffffffffffffff168273ffffffffffffffffffffffffffffffffffffffff16141515156115e757600080fd5b611638816000808673ffffffffffffffffffffffffffffffffffffffff1673ffffffffffffffffffffffffffffffffffffffff1681526020019081526020016000205461177790919063ffffffff16565b6000808573ffffffffffffffffffffffffffffffffffffffff1673ffffffffffffffffffffffffffffffffffffffff168152602001908152602001600020819055506116cb816000808573ffffffffffffffffffffffffffffffffffffffff1673ffffffffffffffffffffffffffffffffffffffff16815260200190815260200160002054611bd390919063ffffffff16565b6000808473ffffffffffffffffffffffffffffffffffffffff1673ffffffffffffffffffffffffffffffffffffffff168152602001908152602001600020819055508173ffffffffffffffffffffffffffffffffffffffff168373ffffffffffffffffffffffffffffffffffffffff167f8b0c34a52f9e28d78caaa7066cd047b398dae74941a208b77777420f492bd7e1836040518082815260200191505060405180910390a3505050565b60006117b983836040805190810160405280601e81526020017f536166654d6174683a207375627472616374696f6e206f766572666c6f770000815250611db1565b905092915050565b600073ffffffffffffffffffffffffffffffffffffffff168273ffffffffffffffffffffffffffffffffffffffff16141515156117fd57600080fd5b600073ffffffffffffffffffffffffffffffffffffffff168373ffffffffffffffffffffffffffffffffffffffff161415151561183957600080fd5b80600160008573ffffffffffffffffffffffffffffffffffffffff1673ffffffffffffffffffffffffffffffffffffffff16815260200190815260200160002060008473ffffffffffffffffffffffffffffffffffffffff1673ffffffffffffffffffffffffffffffffffffffff168152602001908152602001600020819055508173ffffffffffffffffffffffffffffffffffffffff168373ffffffffffffffffffffffffffffffffffffffff167fec06647eb3d581d530bd6914e5c859db8edbc5bfb6bffa5d4cf720b824295e0a836040518082815260200191505060405180910390a3505050565b80600560016101000a81548173ffffffffffffffffffffffffffffffffffffffff021916908373ffffffffffffffffffffffffffffffffffffffff16021790555050565b60008083141561197b5760009050611a2f565b6000828402905082848281151561198e57fe5b05141515611a2a576040517f08c379a00000000000000000000000000000000000000000000000000000000081526004018080602001828103825260218152602001807f536166654d6174683a206d756c7469706c69636174696f6e206f766572666c6f81526020017f770000000000000000000000000000000000000000000000000000000000000081525060400191505060405180910390fd5b809150505b92915050565b6000611a7783836040805190810160405280601a81526020017f536166654d6174683a206469766973696f6e206279207a65726f000000000000815250611e73565b905092915050565b600073ffffffffffffffffffffffffffffffffffffffff168273ffffffffffffffffffffffffffffffffffffffff1614151515611abb57600080fd5b611ad08160025461177790919063ffffffff16565b600281905550611b27816000808573ffffffffffffffffffffffffffffffffffffffff1673ffffffffffffffffffffffffffffffffffffffff1681526020019081526020016000205461177790919063ffffffff16565b6000808473ffffffffffffffffffffffffffffffffffffffff1673ffffffffffffffffffffffffffffffffffffffff16815260200190815260200160002081905550600073ffffffffffffffffffffffffffffffffffffffff168273ffffffffffffffffffffffffffffffffffffffff167f8b0c34a52f9e28d78caaa7066cd047b398dae74941a208b77777420f492bd7e1836040518082815260200191505060405180910390a35050565b6000808284019050838112151515611c53576040517f08c379a000000000000000000000000000000000000000000000000000000000815260040180806020018281038252601b8152602001807f536166654d6174683a206164646974696f6e206f766572666c6f77000000000081525060200191505060405180910390fd5b8091505092915050565b600073ffffffffffffffffffffffffffffffffffffffff168273ffffffffffffffffffffffffffffffffffffffff1614151515611c9957600080fd5b611cae81600254611bd390919063ffffffff16565b600281905550611d05816000808573ffffffffffffffffffffffffffffffffffffffff1673ffffffffffffffffffffffffffffffffffffffff16815260200190815260200160002054611bd390919063ffffffff16565b6000808473ffffffffffffffffffffffffffffffffffffffff1673ffffffffffffffffffffffffffffffffffffffff168152602001908152602001600020819055508173ffffffffffffffffffffffffffffffffffffffff16600073ffffffffffffffffffffffffffffffffffffffff167f8b0c34a52f9e28d78caaa7066cd047b398dae74941a208b77777420f492bd7e1836040518082815260200191505060405180910390a35050565b60008383131582901515611e60576040517f08c379a00000000000000000000000000000000000000000000000000000000081526004018080602001828103825283818151815260200191508051906020019080838360005b83811015611e25578082015181840152602081019050611e0a565b50505050905090810190601f168015611e525780820380516001836020036101000a031916815260200191505b509250505060405180910390fd5b5060008385039050809150509392505050565b600080831382901515611f21576040517f08c379a00000000000000000000000000000000000000000000000000000000081526004018080602001828103825283818151815260200191508051906020019080838360005b83811015611ee6578082015181840152602081019050611ecb565b50505050905090810190601f168015611f135780820380516001836020036101000a031916815260200191505b509250505060405180910390fd5b5060008385811515611f2f57fe5b05905080915050939250505056fea165627a7a723058200553110003ab6feb243a54e301dda911b4fcacb266fe7133d58f72831d2bb53e0029",
  "source": "/**\r\n *Submitted for verification at Etherscan.io on 2020-07-24\r\n*/\r\n\r\n// File: @chainlink\\contracts\\src\\v0.5\\interfaces\\AggregatorInterface.sol\r\n\r\npragma solidity >=0.5.0;\r\n\r\ninterface AggregatorInterface {\r\n  function latestAnswer() external view returns (int256);\r\n  function latestTimestamp() external view returns (uint256);\r\n  function latestRound() external view returns (uint256);\r\n  function getAnswer(uint256 roundId) external view returns (int256);\r\n  function getTimestamp(uint256 roundId) external view returns (uint256);\r\n\r\n  event AnswerUpdated(int256 indexed current, uint256 indexed roundId, uint256 timestamp);\r\n  event NewRound(uint256 indexed roundId, address indexed startedBy, uint256 startedAt);\r\n}\r\n\r\n// File: sample.sol\r\n\r\npragma solidity ^0.5.0;\r\n\r\n\r\n\r\n\r\n\r\n/**\r\n * @dev Wrappers over Solidity's arithmetic operations with added overflow\r\n * checks.\r\n *\r\n * Arithmetic operations in Solidity wrap on overflow. This can easily result\r\n * in bugs, because programmers usually assume that an overflow raises an\r\n * error, which is the standard behavior in high level programming languages.\r\n * `SafeMath` restores this intuition by reverting the transaction when an\r\n * operation overflows.\r\n *\r\n * Using this library instead of the unchecked operations eliminates an entire\r\n * class of bugs, so it's recommended to use it always.\r\n */\r\nlibrary SafeMath {\r\n    /**\r\n     * @dev Returns the addition of two unsigned integers, reverting on\r\n     * overflow.\r\n     *\r\n     * Counterpart to Solidity's `+` operator.\r\n     *\r\n     * Requirements:\r\n     *\r\n     * - Addition cannot overflow.\r\n     */\r\n    function add(int256 a, int256 b) internal pure returns (int256) {\r\n        int256 c = a + b;\r\n        require(c >= a, \"SafeMath: addition overflow\");\r\n\r\n        return c;\r\n    }\r\n\r\n    /**\r\n     * @dev Returns the subtraction of two unsigned integers, reverting on\r\n     * overflow (when the result is negative).\r\n     *\r\n     * Counterpart to Solidity's `-` operator.\r\n     *\r\n     * Requirements:\r\n     *\r\n     * - Subtraction cannot overflow.\r\n     */\r\n    function sub(int256 a, int256 b) internal pure returns (int256) {\r\n        return sub(a, b, \"SafeMath: subtraction overflow\");\r\n    }\r\n\r\n    /**\r\n     * @dev Returns the subtraction of two unsigned integers, reverting with custom message on\r\n     * overflow (when the result is negative).\r\n     *\r\n     * Counterpart to Solidity's `-` operator.\r\n     *\r\n     * Requirements:\r\n     *\r\n     * - Subtraction cannot overflow.\r\n     */\r\n    function sub(int256 a, int256 b, string memory errorMessage) internal pure returns (int256) {\r\n        require(b <= a, errorMessage);\r\n        int256 c = a - b;\r\n\r\n        return c;\r\n    }\r\n\r\n    /**\r\n     * @dev Returns the multiplication of two unsigned integers, reverting on\r\n     * overflow.\r\n     *\r\n     * Counterpart to Solidity's `*` operator.\r\n     *\r\n     * Requirements:\r\n     *\r\n     * - Multiplication cannot overflow.\r\n     */\r\n    function mul(int256 a, int256 b) internal pure returns (int256) {\r\n        // Gas optimization: this is cheaper than requiring 'a' not being zero, but the\r\n        // benefit is lost if 'b' is also tested.\r\n        // See: https://github.com/OpenZeppelin/openzeppelin-contracts/pull/522\r\n        if (a == 0) {\r\n            return 0;\r\n        }\r\n\r\n        int256 c = a * b;\r\n        require(c / a == b, \"SafeMath: multiplication overflow\");\r\n\r\n        return c;\r\n    }\r\n\r\n    /**\r\n     * @dev Returns the integer division of two unsigned integers. Reverts on\r\n     * division by zero. The result is rounded towards zero.\r\n     *\r\n     * Counterpart to Solidity's `/` operator. Note: this function uses a\r\n     * `revert` opcode (which leaves remaining gas untouched) while Solidity\r\n     * uses an invalid opcode to revert (consuming all remaining gas).\r\n     *\r\n     * Requirements:\r\n     *\r\n     * - The divisor cannot be zero.\r\n     */\r\n    function div(int256 a, int256 b) internal pure returns (int256) {\r\n        return div(a, b, \"SafeMath: division by zero\");\r\n    }\r\n\r\n    /**\r\n     * @dev Returns the integer division of two unsigned integers. Reverts with custom message on\r\n     * division by zero. The result is rounded towards zero.\r\n     *\r\n     * Counterpart to Solidity's `/` operator. Note: this function uses a\r\n     * `revert` opcode (which leaves remaining gas untouched) while Solidity\r\n     * uses an invalid opcode to revert (consuming all remaining gas).\r\n     *\r\n     * Requirements:\r\n     *\r\n     * - The divisor cannot be zero.\r\n     */\r\n    function div(int256 a, int256 b, string memory errorMessage) internal pure returns (int256) {\r\n        require(b > 0, errorMessage);\r\n        int256 c = a / b;\r\n        // assert(a == b * c + a % b); // There is no case in which this doesn't hold\r\n\r\n        return c;\r\n    }\r\n\r\n    /**\r\n     * @dev Returns the remainder of dividing two unsigned integers. (unsigned integer modulo),\r\n     * Reverts when dividing by zero.\r\n     *\r\n     * Counterpart to Solidity's `%` operator. This function uses a `revert`\r\n     * opcode (which leaves remaining gas untouched) while Solidity uses an\r\n     * invalid opcode to revert (consuming all remaining gas).\r\n     *\r\n     * Requirements:\r\n     *\r\n     * - The divisor cannot be zero.\r\n     */\r\n    function mod(int256 a, int256 b) internal pure returns (int256) {\r\n        return mod(a, b, \"SafeMath: modulo by zero\");\r\n    }\r\n\r\n    /**\r\n     * @dev Returns the remainder of dividing two unsigned integers. (unsigned integer modulo),\r\n     * Reverts with custom message when dividing by zero.\r\n     *\r\n     * Counterpart to Solidity's `%` operator. This function uses a `revert`\r\n     * opcode (which leaves remaining gas untouched) while Solidity uses an\r\n     * invalid opcode to revert (consuming all remaining gas).\r\n     *\r\n     * Requirements:\r\n     *\r\n     * - The divisor cannot be zero.\r\n     */\r\n    function mod(int256 a, int256 b, string memory errorMessage) internal pure returns (int256) {\r\n        require(b != 0, errorMessage);\r\n        return a % b;\r\n    }\r\n}\r\n\r\n\r\n\r\n/**\r\n * @title ERC20 interface\r\n * @dev see https://eips.ethereum.org/EIPS/eip-20\r\n */\r\ninterface IERC20 {\r\n    function transfer(address to, int256 value) external returns (bool);\r\n\r\n    function approve(address spender, int256 value) external returns (bool);\r\n\r\n    function transferFrom(address from, address to, int256 value) external returns (bool);\r\n\r\n    function totalSupply() external view returns (int256);\r\n\r\n    function balanceOf(address who) external view returns (int256);\r\n\r\n    function allowance(address owner, address spender) external view returns (int256);\r\n\r\n    event Transfer(address indexed from, address indexed to, int256 value);\r\n\r\n    event Approval(address indexed owner, address indexed spender, int256 value);\r\n}\r\n\r\n\r\n\r\n/**\r\n * @title Standard ERC20 token\r\n *\r\n * @dev Implementation of the basic standard token.\r\n * https://eips.ethereum.org/EIPS/eip-20\r\n * Originally based on code by FirstBlood:\r\n * https://github.com/Firstbloodio/token/blob/master/smart_contract/FirstBloodToken.sol\r\n *\r\n * This implementation emits additional Approval events, allowing applications to reconstruct the allowance status for\r\n * all accounts just by listening to said events. Note that this isn't required by the specification, and other\r\n * compliant implementations may not do it.\r\n */\r\ncontract ERC20 is IERC20 {\r\n    using SafeMath for int256;\r\n\r\n    mapping (address => int256) private _balances;\r\n\r\n    mapping (address => mapping (address => int256)) private _allowed;\r\n\r\n    int256 private _totalSupply;\r\n\r\n    /**\r\n     * @dev Total number of tokens in existence\r\n     */\r\n    function totalSupply() public view returns (int256) {\r\n        return _totalSupply;\r\n    }\r\n\r\n    /**\r\n     * @dev Gets the balance of the specified address.\r\n     * @param owner The address to query the balance of.\r\n     * @return A uint256 representing the amount owned by the passed address.\r\n     */\r\n    function balanceOf(address owner) public view returns (int256) {\r\n        return _balances[owner];\r\n    }\r\n\r\n    /**\r\n     * @dev Function to check the amount of tokens that an owner allowed to a spender.\r\n     * @param owner address The address which owns the funds.\r\n     * @param spender address The address which will spend the funds.\r\n     * @return A uint256 specifying the amount of tokens still available for the spender.\r\n     */\r\n    function allowance(address owner, address spender) public view returns (int256) {\r\n        return _allowed[owner][spender];\r\n    }\r\n\r\n    /**\r\n     * @dev Transfer token to a specified address\r\n     * @param to The address to transfer to.\r\n     * @param value The amount to be transferred.\r\n     */\r\n    function transfer(address to, int256 value) public returns (bool) {\r\n        _transfer(msg.sender, to, value);\r\n        return true;\r\n    }\r\n\r\n    /**\r\n     * @dev Approve the passed address to spend the specified amount of tokens on behalf of msg.sender.\r\n     * Beware that changing an allowance with this method brings the risk that someone may use both the old\r\n     * and the new allowance by unfortunate transaction ordering. One possible solution to mitigate this\r\n     * race condition is to first reduce the spender's allowance to 0 and set the desired value afterwards:\r\n     * https://github.com/ethereum/EIPs/issues/20#issuecomment-263524729\r\n     * @param spender The address which will spend the funds.\r\n     * @param value The amount of tokens to be spent.\r\n     */\r\n    function approve(address spender, int256 value) public returns (bool) {\r\n        _approve(msg.sender, spender, value);\r\n        return true;\r\n    }\r\n\r\n    /**\r\n     * @dev Transfer tokens from one address to another.\r\n     * Note that while this function emits an Approval event, this is not required as per the specification,\r\n     * and other compliant implementations may not emit the event.\r\n     * @param from address The address which you want to send tokens from\r\n     * @param to address The address which you want to transfer to\r\n     * @param value uint256 the amount of tokens to be transferred\r\n     */\r\n    function transferFrom(address from, address to, int256 value) public returns (bool) {\r\n        _transfer(from, to, value);\r\n        _approve(from, msg.sender, _allowed[from][msg.sender].sub(value));\r\n        return true;\r\n    }\r\n\r\n    /**\r\n     * @dev Increase the amount of tokens that an owner allowed to a spender.\r\n     * approve should be called when _allowed[msg.sender][spender] == 0. To increment\r\n     * allowed value is better to use this function to avoid 2 calls (and wait until\r\n     * the first transaction is mined)\r\n     * From MonolithDAO Token.sol\r\n     * Emits an Approval event.\r\n     * @param spender The address which will spend the funds.\r\n     * @param addedValue The amount of tokens to increase the allowance by.\r\n     */\r\n    function increaseAllowance(address spender, int256 addedValue) public returns (bool) {\r\n        _approve(msg.sender, spender, _allowed[msg.sender][spender].add(addedValue));\r\n        return true;\r\n    }\r\n\r\n    /**\r\n     * @dev Decrease the amount of tokens that an owner allowed to a spender.\r\n     * approve should be called when _allowed[msg.sender][spender] == 0. To decrement\r\n     * allowed value is better to use this function to avoid 2 calls (and wait until\r\n     * the first transaction is mined)\r\n     * From MonolithDAO Token.sol\r\n     * Emits an Approval event.\r\n     * @param spender The address which will spend the funds.\r\n     * @param subtractedValue The amount of tokens to decrease the allowance by.\r\n     */\r\n    function decreaseAllowance(address spender, int256 subtractedValue) public returns (bool) {\r\n        _approve(msg.sender, spender, _allowed[msg.sender][spender].sub(subtractedValue));\r\n        return true;\r\n    }\r\n\r\n    /**\r\n     * @dev Transfer token for a specified addresses\r\n     * @param from The address to transfer from.\r\n     * @param to The address to transfer to.\r\n     * @param value The amount to be transferred.\r\n     */\r\n    function _transfer(address from, address to, int256 value) internal {\r\n        require(to != address(0));\r\n\r\n        _balances[from] = _balances[from].sub(value);\r\n        _balances[to] = _balances[to].add(value);\r\n        emit Transfer(from, to, value);\r\n    }\r\n\r\n    /**\r\n     * @dev Internal function that mints an amount of the token and assigns it to\r\n     * an account. This encapsulates the modification of balances such that the\r\n     * proper events are emitted.\r\n     * @param account The account that will receive the created tokens.\r\n     * @param value The amount that will be created.\r\n     */\r\n    function _mint(address account, int256 value) internal {\r\n        require(account != address(0));\r\n\r\n        _totalSupply = _totalSupply.add(value);\r\n        _balances[account] = _balances[account].add(value);\r\n        emit Transfer(address(0), account, value);\r\n    }\r\n\r\n    /**\r\n     * @dev Internal function that burns an amount of the token of a given\r\n     * account.\r\n     * @param account The account whose tokens will be burnt.\r\n     * @param value The amount that will be burnt.\r\n     */\r\n    function _burn(address account, int256 value) internal {\r\n        require(account != address(0));\r\n\r\n        _totalSupply = _totalSupply.sub(value);\r\n        _balances[account] = _balances[account].sub(value);\r\n        emit Transfer(account, address(0), value);\r\n    }\r\n\r\n    /**\r\n     * @dev Approve an address to spend another addresses' tokens.\r\n     * @param owner The address that owns the tokens.\r\n     * @param spender The address that will spend the tokens.\r\n     * @param value The number of tokens that can be spent.\r\n     */\r\n    function _approve(address owner, address spender, int256 value) internal {\r\n        require(spender != address(0));\r\n        require(owner != address(0));\r\n\r\n        _allowed[owner][spender] = value;\r\n        emit Approval(owner, spender, value);\r\n    }\r\n\r\n    /**\r\n     * @dev Internal function that burns an amount of the token of a given\r\n     * account, deducting from the sender's allowance for said account. Uses the\r\n     * internal burn function.\r\n     * Emits an Approval event (reflecting the reduced allowance).\r\n     * @param account The account whose tokens will be burnt.\r\n     * @param value The amount that will be burnt.\r\n     */\r\n    function _burnFrom(address account, int256 value) internal {\r\n        _burn(account, value);\r\n        _approve(account, msg.sender, _allowed[account][msg.sender].sub(value));\r\n    }\r\n}\r\n\r\n\r\n\r\n/**\r\n * @title ERC20Detailed token\r\n * @dev The decimals are only for visualization purposes.\r\n * All the operations are done using the smallest and indivisible token unit,\r\n * just as on Ethereum all the operations are done in wei.\r\n */\r\ncontract ERC20Detailed is IERC20 {\r\n    string private _name;\r\n    string private _symbol;\r\n    int8 private _decimals;\r\n\r\n    constructor (string memory name, string memory symbol, int8 decimals) public {\r\n        _name = name;\r\n        _symbol = symbol;\r\n        _decimals = decimals;\r\n    }\r\n\r\n    /**\r\n     * @return the name of the token.\r\n     */\r\n    function name() public view returns (string memory) {\r\n        return _name;\r\n    }\r\n\r\n    /**\r\n     * @return the symbol of the token.\r\n     */\r\n    function symbol() public view returns (string memory) {\r\n        return _symbol;\r\n    }\r\n\r\n    /**\r\n     * @return the number of decimals of the token.\r\n     */\r\n    function decimals() public view returns (int8) {\r\n        return _decimals;\r\n    }\r\n}\r\n\r\n\r\ncontract BridgifyEUR is ERC20, ERC20Detailed {\r\n  event ExchangeRate(int256 finalExchangeRate);\r\n\r\n  using SafeMath for int256;\r\n  AggregatorInterface internal erc20Ref;\r\n  AggregatorInterface internal fiatRef;\r\n\r\n  \r\n  // fiat aggregator address in this case will be eur/usd\r\n  constructor(address _fiataggregator) public ERC20Detailed(\"TestnetEUR\", \"EUR\", 18) {\r\n    fiatRef = AggregatorInterface(_fiataggregator);\r\n  }\r\n\r\n  function setReferenceContract(address _erc20aggregator) internal {\r\n  erc20Ref = AggregatorInterface(_erc20aggregator);\r\n  }\r\n\r\n  /**\r\n  * @dev Mint EUR Tokens by swapping it for ERC20\r\n  * @param token - token address you wish to swap\r\n  * @param _amount - amount to swap\r\n  * @param _erc20aggregator - chainlink aggregator address of the erc20/usd pair\r\n  */\r\n  function depositFiat(address token, int256 _amount, address _erc20aggregator) external {\r\n    // setting the reference contract\r\n    setReferenceContract(_erc20aggregator);\r\n    // locking token in contract\r\n    // since token price can fluctuate a bit so locking in 3% of the additional amount\r\n    int256 collateralAmount = _amount.add((_amount.mul(3)).div(100));\r\n    IERC20(token).transferFrom(msg.sender, address(this), collateralAmount);\r\n    int256 usdExchangeAmount = erc20Ref.latestAnswer().mul(_amount);\r\n    // precision issue in fiatMintingAmount due to division\r\n    int256 fiatMintingAmount = usdExchangeAmount.div(fiatRef.latestAnswer());\r\n    _mint(msg.sender, fiatMintingAmount);\r\n  }\r\n  \r\n  /**\r\n  * @dev Redeem your EUR Tokens for the ERC20 Tokens locked in the contract\r\n  * @param token - token address you wish to get back\r\n  * @param _amount - amount to redeem\r\n  * @param _erc20aggregator - chainlink aggregator address of the erc20/usd pair\r\n  */\r\n  function redeem (address token, int256 _amount, address _erc20aggregator) external {\r\n    require(IERC20(token).balanceOf(address(this)) > _amount, \"The contract should have enough balance to transfer\");\r\n    require(IERC20(address(this)).balanceOf(msg.sender) >= _amount, \"Low on EUR Balance\");\r\n    // setting the reference contract\r\n    setReferenceContract(_erc20aggregator);\r\n    int256 usdExchangeAmount = fiatRef.latestAnswer().mul(_amount);\r\n    int256 daiRedeemAmount = usdExchangeAmount.div(erc20Ref.latestAnswer());\r\n    _burn(msg.sender, _amount);\r\n    //usd pairs are multiplied with 10^8 to account decimal places so converting the final result to wei\r\n    IERC20(token).transfer(msg.sender, daiRedeemAmount);\r\n  }\r\n  \r\n  /**\r\n  * @dev Get Latest Exchange Rate\r\n  * @param _erc20aggregator - chainlink aggregator address of the erc20/usd pair\r\n  */\r\n  function getExchangeRate(address _erc20aggregator, int256 _amount) public {\r\n    // setting the reference contract\r\n    setReferenceContract(_erc20aggregator);\r\n    // locking token in contract\r\n    int256 usdExchangeAmount = erc20Ref.latestAnswer().mul(_amount);\r\n    // precision issue in fiatMintingAmount due to division\r\n    int256 fiatMintingAmount = usdExchangeAmount.div(fiatRef.latestAnswer());\r\n    emit ExchangeRate(fiatMintingAmount);\r\n  }\r\n}\r\n",
  "sourcePath": "C:\\Users\\lazypuppet\\ethereum\\snaketh4x0r\\ERC20-Fiat-Marketplace\\contracts\\BridgifyEUR.sol",
  "compiler": {
    "name": "solc",
    "version": "0.5.0+commit.1d4f565a.Emscripten.clang"
  },
  "schemaVersion": "3.1.0",
  "updatedAt": "2020-07-25T04:17:48.051Z",
  "devdoc": {
    "methods": {
      "allowance(address,address)": {
        "details": "Function to check the amount of tokens that an owner allowed to a spender.\r",
        "params": {
          "owner": "address The address which owns the funds.\r",
          "spender": "address The address which will spend the funds.\r"
        },
        "return": "A uint256 specifying the amount of tokens still available for the spender.\r"
      },
      "approve(address,int256)": {
        "details": "Approve the passed address to spend the specified amount of tokens on behalf of msg.sender.\r Beware that changing an allowance with this method brings the risk that someone may use both the old\r and the new allowance by unfortunate transaction ordering. One possible solution to mitigate this\r race condition is to first reduce the spender's allowance to 0 and set the desired value afterwards:\r https://github.com/ethereum/EIPs/issues/20#issuecomment-263524729\r",
        "params": {
          "spender": "The address which will spend the funds.\r",
          "value": "The amount of tokens to be spent.\r"
        }
      },
      "balanceOf(address)": {
        "details": "Gets the balance of the specified address.\r",
        "params": {
          "owner": "The address to query the balance of.\r"
        },
        "return": "A uint256 representing the amount owned by the passed address.\r"
      },
      "decimals()": {
        "return": "the number of decimals of the token.\r"
      },
      "decreaseAllowance(address,int256)": {
        "details": "Decrease the amount of tokens that an owner allowed to a spender.\r approve should be called when _allowed[msg.sender][spender] == 0. To decrement\r allowed value is better to use this function to avoid 2 calls (and wait until\r the first transaction is mined)\r From MonolithDAO Token.sol\r Emits an Approval event.\r",
        "params": {
          "spender": "The address which will spend the funds.\r",
          "subtractedValue": "The amount of tokens to decrease the allowance by.\r"
        }
      },
      "depositFiat(address,int256,address)": {
        "details": "Mint EUR Tokens by swapping it for ERC20\r",
        "params": {
          "_amount": "- amount to swap\r",
          "_erc20aggregator": "- chainlink aggregator address of the erc20/usd pair\r",
          "token": "- token address you wish to swap\r"
        }
      },
      "getExchangeRate(address,int256)": {
        "details": "Get Latest Exchange Rate\r",
        "params": {
          "_erc20aggregator": "- chainlink aggregator address of the erc20/usd pair\r"
        }
      },
      "increaseAllowance(address,int256)": {
        "details": "Increase the amount of tokens that an owner allowed to a spender.\r approve should be called when _allowed[msg.sender][spender] == 0. To increment\r allowed value is better to use this function to avoid 2 calls (and wait until\r the first transaction is mined)\r From MonolithDAO Token.sol\r Emits an Approval event.\r",
        "params": {
          "addedValue": "The amount of tokens to increase the allowance by.\r",
          "spender": "The address which will spend the funds.\r"
        }
      },
      "name()": {
        "return": "the name of the token.\r"
      },
      "redeem(address,int256,address)": {
        "details": "Redeem your EUR Tokens for the ERC20 Tokens locked in the contract\r",
        "params": {
          "_amount": "- amount to redeem\r",
          "_erc20aggregator": "- chainlink aggregator address of the erc20/usd pair\r",
          "token": "- token address you wish to get back\r"
        }
      },
      "symbol()": {
        "return": "the symbol of the token.\r"
      },
      "totalSupply()": {
        "details": "Total number of tokens in existence\r"
      },
      "transfer(address,int256)": {
        "details": "Transfer token to a specified address\r",
        "params": {
          "to": "The address to transfer to.\r",
          "value": "The amount to be transferred.\r"
        }
      },
      "transferFrom(address,address,int256)": {
        "details": "Transfer tokens from one address to another.\r Note that while this function emits an Approval event, this is not required as per the specification,\r and other compliant implementations may not emit the event.\r",
        "params": {
          "from": "address The address which you want to send tokens from\r",
          "to": "address The address which you want to transfer to\r",
          "value": "uint256 the amount of tokens to be transferred\r"
        }
      }
    }
  },
  "userdoc": {
    "methods": {}
  }
}